:020000040800F2
:100000007007002089010008D11400082712000899
:10001000111400088F0200080D18000800000000ED
:10002000000000000000000000000000D5140008DF
:100030009102000800000000D3140008D714000843
:10004000A3010008A3010008A3010008A301000800
:10005000A3010008A3010008A3010008A3010008F0
:10006000A3010008A3010008A3010008A3010008E0
:10007000A3010008A3010008A3010008A3010008D0
:10008000A3010008A3010008A3010008A3010008C0
:10009000A3010008A3010008A3010008A3010008B0
:1000A000A3010008A3010008A3010008A3010008A0
:1000B000A3010008A30100083D150008A3010008E2
:1000C000A3010008A3010008A3010008A301000880
:1000D000A3010008A3010008A3010008A301000870
:1000E000A3010008A3010008A301000800F002F822
:1000F00000F03AF80AA090E8000C82448344AAF188
:100100000107DA4501D100F02FF8AFF2090EBAE885
:100110000F0013F0010F18BFFB1A43F0010318473B
:100120001C1C00003C1C0000103A24BF78C878C199
:10013000FAD8520724BF30C830C144BF04680C60ED
:10014000704700000023002400250026103A28BF35
:1001500078C1FBD8520728BF30C148BF0B60704739
:100160001FB51FBD10B510BD00F058F81146FFF7C0
:10017000F7FF01F05DFB00F076F803B4FFF7F2FF44
:1001800003BC00F07DF8000009488047094800479B
:10019000FEE7FEE7FEE7FEE7FEE7FEE7FEE7FEE737
:1001A000FEE7FEE704480549054A064B7047000094
:1001B00039150008ED0000087001002070070020CC
:1001C00070030020700300204FF0000200B51346BA
:1001D00094469646203922BFA0E80C50A0E80C5067
:1001E000B1F12001BFF4F7AF090728BFA0E80C5018
:1001F00048BF0CC05DF804EB890028BF40F8042B11
:1002000008BF704748BF20F8022B11F0804F18BF7D
:1002100000F8012B7047704770477047754600F033
:100220002BF8AE4605006946534620F00700854688
:1002300018B020B5FFF7B6FFBDE820404FF000062C
:100240004FF000074FF000084FF0000B21F00701BE
:10025000AC46ACE8C009ACE8C009ACE8C009ACE801
:10026000C0098D46704710B50446AFF300802046A4
:10027000BDE81040FFF781BF004870470C01002027
:1002800001491820ABBEFEE7260002007047FEE7DA
:100290007047000070B5044600F004F90546601C84
:1002A00002D004480078044400F0FCF8401BA0424F
:1002B000FAD370BD240000202DE9F84FDFF8B89183
:1002C0000024A9F1040B23460F2709F1040AABF11E
:1002D000040EC9E00125A5402A40AA427DD1674EFF
:1002E000D1F804C0ACEB0608B44532D014DCBCF144
:1002F000030F3AD009DCBCF1000F2AD0BCF1010F8A
:100300001CD0BCF1020F31D11DE0BCF1110F17D090
:10031000BCF1120F2AD119E0B8F5881F19D006DCFC
:10032000B8F5803F15D0B8F5801F1FD111E0B8F5A2
:10033000001F0ED0B8F5041F18D10AE0CB6815E0F5
:10034000CB681B1D12E0CB6808330FE0CB680C3381
:100350000CE08B682BB1012B4FF0080303D04561F3
:1003600004E0042302E0056100E00023FF2A01D835
:10037000064601E000F104064FEA840501D9A5F123
:100380002005D6F8008007FA05FC28EA0C0803FAD5
:1003900005F548EA0508C6F800804D68ED0062D50D
:1003A000374DAE6946F00106AE61AD6924F0030633
:1003B00005F001050095334D06EB050CDCF80850FF
:1003C000A607360F07FA06F825EA0805DFF8B88011
:1003D000404503D14FF0000817E044E0DFF8AC805F
:1003E000404502D14FF001080FE0DFF8A4804045FE
:1003F00002D14FF0020808E0DFF89880404502D1B2
:100400004FF0030801E04FF0040808FA06F848EA44
:100410000508CCF808804D68D9F80060ED024D461B
:1004200001D5164300E096432E604D68DAF800606F
:10043000AD02554601D5164300E096432E604D6847
:10044000DBF80060AD035D4601D5164300E096433E
:100450002E604D68DEF80060ED03754601D5164349
:1004600000E096432E60641C0D682A46E5407FF448
:1004700031AFBDE8F88F0000080401400000111002
:10048000001002400000014000080140000C014043
:1004900000100140001401400AB1016170470904D5
:1004A000FBE700000148806870470000240000203E
:1004B000024881680278114481607047240000205E
:1004C000074810B5016841F010010160032000F0F9
:1004D00097F80F2000F006F800F024F8002010BD77
:1004E0000020024070B50D4D04464FF47A71287813
:1004F000B1FBF0F00A490968B1FBF0F000F0DEFA58
:1005000048B9102C07D200222146501E00F058F89E
:1005100000206C6070BD012070BD00002400002030
:10052000300000201D4808B5816941F0010181615A
:10053000816901F001010091C16941F08051C161FF
:10054000C069002200F08050009001216FF00B0084
:1005500000F036F8002201216FF00A0000F030F8B8
:10056000002201216FF0090000F02AF80121002289
:10057000881F00F025F801210022481F00F020F814
:1005800001210022C81E00F01BF80548416821F037
:10059000E06141F00071416008BD000000100240C0
:1005A00000000140002809DB00F01F0201219140FA
:1005B0004009800000F1E020C0F800117047000001
:1005C000F0B40E4B1B680C46C3F30223C3F10705BE
:1005D000042D00D90425191D072901D2002300E0AC
:1005E000DB1E012606FA05F1491E214099409E4076
:1005F000761E16403143F0BC01F009B90CED00E065
:10060000064900F0070208684FF6FF03184040EA69
:100610000220034A10430860704700000CED00E020
:100620000000FA052DE9F0470F46050061D0434E62
:10063000306800F00700B84209D2306820F00700A7
:1006400038433060306800F00700B84251D1286864
:100650003B4C810712D5400703D5606840F4E06049
:1006600060602878000703D5606840F460506060DF
:100670006068A96820F0F000084360602878C0072F
:1006800028D06868012810D02168022810D0890776
:1006900000292EDA616821F0030101436160FFF750
:1006A00001FF804641F288390DE021688903EFE7B8
:1006B0008901EDE7FFF7F6FEA0EB0801494502D9F5
:1006C0000320BDE8F0876068696800F00C00B0EBBB
:1006D000810FEFD1306800F00700B8420BD93068C5
:1006E00020F0070038433060306800F00700B8425F
:1006F00001D00120E5E72878400705D56068E96862
:1007000020F4E060084360602878000706D5606840
:10071000296920F4605040EAC100606000F018F8D8
:100720006168084AC1F30311515CC840064908607A
:1007300006480068FFF7D6FE0020C2E7002002400E
:10074000001002402C1D000830000020280000206E
:100750000E4A51680E4801F00C03042B11D0082BEF
:100760000FD10C48C1F38343C903C05C0AD551685B
:10077000084AC1F34041921E515C054A5043B0FB08
:10078000F1F07047044948437047000000100240F0
:1007900000127A001C1D000800093D002DE9F84FE9
:1007A000040070D02078C04DC00749D06868C0F3FD
:1007B0008100012807D06868C0F38100022809D1B0
:1007C0006868C00306D52868800339D560680028AA
:1007D000E7D035E06068B0F5803F0BD010B1B0F5E0
:1007E000A02F11D0286820F480302860286820F4D9
:1007F000802002E0286840F480302860606890B172
:10080000FFF750FE06460AE0286840F48020286082
:10081000F0E700BFFFF746FE801B642873D8286806
:100820008003F7D50CE0FFF73DFE064605E000BF6C
:10083000FFF738FE801B6428F0D828688003F7D4BF
:1008400020789A4E80074FF001094FF0000839D503
:10085000686810F00C0F07D06868C0F381000228A8
:1008600009D16868C00306D42868800714D52069B8
:10087000012808D110E02069B0B1C6F80090FFF758
:1008800011FE074605E00AE1FFF70CFEC01B022837
:10089000C4D828688007F7D52868616920F0F80077
:1008A00040EAC10028600DE0C6F80080FFF7FAFDBD
:1008B000074604E0FFF7F6FDC01B022823D828688E
:1008C0008007F7D4207800072CD57948A169D9B1E1
:1008D000C0F80090FFF7E6FD074604E0FFF7E2FDF1
:1008E000C01B02280FD8686A8007F7D571484FF4FB
:1008F000FA510068B0FBF1F0009000BF0098411E73
:100900000091FAD20EE080E0C0F80080FFF7CAFD47
:10091000074604E0FFF7C6FDC01B022875D8686AC9
:100920008007F7D42078400760D5E8690027C00029
:1009300008D4E86940F08050E861E869012700F0D8
:10094000805000905C480168C90513D40168834653
:1009500041F480710160FFF7A5FD824606E000BF0B
:10096000FFF7A0FDA0EB0A0064284ED8DBF80000DA
:10097000C005F5D5E06801280AD008B1052813D0D4
:10098000286A20F001002862286A20F0040002E0B2
:10099000286A40F001002862E06841F2883B98B183
:1009A000FFF780FD82460BE0286A40F004002862D1
:1009B000EEE700BFFFF776FDA0EB0A0159455AD8D4
:1009C000286A8007F6D50CE0FFF76CFD824605E04B
:1009D000FFF768FDA0EB0A0159454CD8286A80074B
:1009E000F6D41FB1E86920F08050E861E06988B36F
:1009F0006968C1F38101022944D00228C6F86080E9
:100A000004D0FFF74FFD044638E034E0FFF74AFD1D
:100A1000074604E0FFF746FDC01B02282BD82868D4
:100A20008001F7D4206AB0F5803F05D16868A168DD
:100A300020F4003008436860D4E90801084369687D
:100A400021F4741108436860C6F86090FFF72AFD2E
:100A5000044606E025E000BFFFF724FD001B022846
:100A600009D828688001F7D51BE000BFFFF71AFD01
:100A7000001B022802D90320BDE8F88F28688001F6
:100A8000F4D40EE00128F7D06868226A00F48031BF
:100A9000914204D1616A00F47010884201D00120B3
:100AA000EAE70020E8E700000010024000004242B0
:100AB00080044242300000200070004010B5401E0B
:100AC000B0F1807F01D3012010BD4FF0E0246061C0
:100AD0000F21601700F09BFE0020A061072020611D
:100AE000002010BD7047704770B590F83C20012A77
:100AF00026D0012480F83C40022280F83D20036883
:100B00005A689D6822F070060A6832435A600D4B9D
:100B100002689A4208D0B2F1804F05D00A4B9A423F
:100B200002D00A4B9A4204D1496825F08003194348
:100B3000916080F83D40002180F83C10084670BD6F
:100B4000022070BD002C014000040040000800405D
:100B500010B5040003D094F83D0010B107E0012067
:100B600010BD002084F83C00204600F01FF8022051
:100B700084F83D00211D206800F0E6FC012084F887
:100B8000460084F83E0084F83F0084F8400084F872
:100B9000410084F8420084F8430084F8440084F85B
:100BA000450084F83D00002010BD000008B5006835
:100BB0000B49884212D10B48C16941F00401C1615F
:100BC000C069002200F00400009011461E20FFF7CB
:100BD000F7FCBDE808401E20FFF7E4BC08BD00009C
:100BE000000800400010024090F83D10012901D09B
:100BF00001207047022180F83D100168CA6842F068
:100C00000102CA6000680B49884208D0B0F1804FE9
:100C100005D00949884202D00849884204D1816838
:100C200001F00701062903D0016841F001010160CC
:100C300000207047002C01400004004000080040E4
:100C400070B5044690F83C000025012817D0012615
:100C500084F83C60022084F83D002068826822F01D
:100C6000770222F47F4282600868502838D00DDC79
:100C700020284FD005DC90B3102811D14AE0022083
:100C800070BD302846D040280AD13BE060282FD0E4
:100C900070280DD0B0F5805F03D0B0F5005F12D0A2
:100CA000012584F83D60002084F83C00284670BD92
:100CB000CB68D1E90121206800F08FFC20688168B1
:100CC00041F0770109E0CB68D1E90121206800F00B
:100CD00084FC2068816841F480418160E1E719E08B
:100CE000CA684968206800F02DFD5021206806E0A0
:100CF000CA684968206800F036FD6021206800F06D
:100D000076FCCEE7CA684968206800F01BFD4021E8
:100D10002068F4E7226801461046F0E72DE9F0412B
:100D20000D46040003D094F83D0018B108E00120FE
:100D3000BDE8F081002084F83C00204600F040F837
:100D4000022084F83D002068816844F20702914344
:100D50008160211D206800F0F7FB2268906891698E
:100D6000166A2B68AF69034340F20330814341EABE
:100D70000721A868EF6908434FF6FC418843E968FA
:100D800040EA0720014328692F6A000140EA073042
:100D9000084369686D6926F0220646EA051529436D
:100DA00093602268906154F8460B0162012004F8B8
:100DB0001F09E0752076E0762077A0750020B7E760
:100DC00000B585B000210091019102910391006866
:100DD0000D49884216D10D48C16941F00201C16137
:100DE000C16901F002010491816941F0040181614E
:100DF0008069694600F004000490C0200090044817
:100E0000FFF75AFA05B000BD000400400010024090
:100E10000008014070B590F83E60044690F83F50DD
:100E200090F8423090F84320022021B104290ED0DE
:100E3000012E1BD114E0012E18D1012B16D184F8FC
:100E40003E0084F8420001220021206820E0012DAC
:100E50000CD1012A0AD184F83F0084F8430014E041
:100E6000012D03D1012B01D1012A01D0012070BD38
:100E700084F83E0084F83F0084F8420084F8430080
:100E800001220021206800F09BFB01220421206840
:100E900000F096FB2068016841F00101016000202C
:100EA00070BD70472DE9F04104460068C6680569C9
:100EB0004FF00007A90713D5B10711D5F91E01613D
:100EC00001202077206880698007204602D0FFF744
:100ED000E8FF04E000F0A2F8204600F045F927778B
:100EE000680716D5700714D521686FF004000861F3
:100EF000022020772068806910F4407F204602D0CD
:100F0000FFF7CFFF04E000F089F8204600F02CF94D
:100F10002777280715D5300713D521686FF008000B
:100F20000861042020772068C0698007204602D02D
:100F3000FFF7B7FF04E000F071F8204600F014F965
:100F40002777E80616D5F00614D521686FF0100053
:100F50000861082020772068C06910F4407F20468F
:100F600002D0FFF79EFF04E000F058F8204600F0A2
:100F7000FBF82777E80708D0F00706D021686FF064
:100F800001000861204600F03FF9280608D5300628
:100F900006D521686FF0800008612046FFF7A2FDAA
:100FA000680608D5700606D521686FF04000086114
:100FB000204600F037F9A8060AD5B00608D5216802
:100FC0006FF0200008612046BDE8F041FFF78BBDBF
:100FD000BDE8F08100B585B000210091019102913A
:100FE00003910068B0F1804F11D10A48816941F046
:100FF000040181618069694600F0040004900120C9
:1010000000900220019003900348FFF755F905B0C6
:1010100000BD00000010024000080140704770B59C
:10102000044690F83C0000260D4601280FD0012010
:1010300084F83C006AB1042A1DD0082A2FD00C2A5B
:101040003FD00126002084F83C00304670BD0220CD
:1010500070BD206800F0D4FA2068816941F0080171
:1010600081612068816921F00401816120688169C2
:101070002A69114311E0206800F0EAFA20688169CA
:1010800041F4006181612068816921F4806181619E
:10109000206881692A6941EA02218161D2E72068DA
:1010A00000F002FB2068C16941F00801C1612068BD
:1010B000C16921F00401C1612068C1692A69114335
:1010C00011E0206800F01CFB2068C16941F4006158
:1010D000C1612068C16921F48061C1612068C16972
:1010E0002A6941EA0221C161ACE710B5040003D0CE
:1010F00094F83D0010B107E0012010BD002084F8F5
:101100003C00204600F01EF8022084F83D00211D1E
:10111000206800F019FA012084F8460084F83E00A7
:1011200084F83F0084F8400084F8410084F84200CD
:1011300084F8430084F8440084F8450084F83D00B6
:10114000002010BD08B50068B0F1804F08D10548F7
:10115000C16941F00101C161C06900F00100009066
:1011600008BD0000001002407047000010B50446A2
:10117000022249B104290ED0082913D094F8410065
:10118000012816D0012010BD94F83E000128F9D1A5
:1011900084F83E200FE094F83F000128F2D184F853
:1011A0003F2008E094F840000128EBD184F840206B
:1011B00001E084F841200122206800F001FA0F4983
:1011C0002068884203D1426C42F4004242642068A5
:1011D000884208D0B0F1804F05D00949884202D03A
:1011E0000849884204D1816801F00701062903D02B
:1011F000016841F001010160002010BD002C014098
:10120000000400400008004010B50068044988420E
:1012100005D100F0BBFABDE8104000F033B910BDB5
:10122000000800407047FEE72DE9F04186B0002538
:1012300023480095019502950395816941F01001BD
:101240008161816901F010010491816941F02001FF
:101250008161816901F020010491816941F00401FB
:101260008161816901F004010491816941F0080103
:1012700081618069134F00F008004FF4005404901E
:10128000002221463846FFF707F9DFF83C800022AC
:1012900003214046FFF700F9009401240226CDE91E
:1012A0000246694638460194FFF706F803208DE8A8
:1012B000710069464046FEF7FFFF06B0BDE8F081C9
:1012C0000010024000100140000C014010B58AB02F
:1012D000002407941C2168460894FEF775FF164801
:1012E0004FF0804101604721C0E9011440F2E7312D
:1012F000C0E903148461FFF7F8FE08B172B6FEE797
:10130000079407A90C480894FFF7EEFB08B172B6E2
:10131000FEE76020CDE900040294002269460648F9
:101320000494FFF77CFE08B172B6FEE70248FFF7AF
:1013300051FE0AB010BD00003400002010B58CB082
:1013400024216846FEF740FF0024164809941449FA
:101350000A94C0E900144FF6FF71C0E9024104612C
:1013600084610320CDE900040120CDE90204049446
:10137000CDE90540079469460A480894FFF7CEFC7A
:1013800008B172B6FEE7099409A906480A94FFF766
:10139000ABFB002801D072B6FEE70CB010BD000018
:1013A000000400407C00002010B586B000241748DF
:1013B00000940194029403940494134905940160E9
:1013C0004721C0E9011440F2E731C0E90314846108
:1013D000FFF7BEFB08B172B6FEE74FF480500090F5
:1013E00069460A48FFF72CFC08B172B6FEE7049480
:1013F00004A906480594FFF777FB002801D072B6D0
:10140000FEE706B010BD000000080040C400002048
:10141000FEE7000070B504464FF47A70154D844223
:1014200001DD044606E01448844201DA04460CE07B
:10143000002C0ADB012211462846FFF72DF8002276
:1014400002212846FFF728F80AE000220121284659
:10145000FFF722F8012202212846FFF71DF8644217
:10146000064800684463002C00DA64420448446182
:1014700070BD0000000C014018FCFFFF340000208C
:101480000000002070B5104DA86800F061FA044615
:101490004FF47A70844203DD0446FFF7BBFF0CE093
:1014A0000A48844203DA0446FFF7B4FF04E020460A
:1014B000FFF7B0FF002C00DA64426C61D5E902014D
:1014C00000F046FBE86170BD0000002018FCFFFF43
:1014D000FEE770477047FEF7EBBF30B58FB02821AD
:1014E0006846FEF771FE14210AA8FEF76DFE012181
:1014F0000804CDE900100024029402250491CDE9EE
:1015000007504FF4E01009906846FFF747F908B11B
:1015100072B6FEE70F20CDE90A054FF48060CDE9F1
:101520000C4002210AA80E94FFF77CF8002801D095
:1015300072B6FEE70FB030BD704700000148FFF7FC
:10154000B1BC0000C4000020F0B50268194B1A4C71
:101550001A4D4FF08047984205D0B84203D0A042C0
:1015600001D0A84203D122F070064A683243984263
:1015700005D0B84203D0A04201D0A84203D122F442
:101580004074CA6822434C6922F080022243026000
:101590008A68C2620A688262984201D1096901635D
:1015A000012141610169C90703D0016921F00101ED
:1015B0000161F0BD002C0140000400400008004023
:1015C00010B501F01F030121046A99408C430462A5
:1015D000016A9A401143016210BD10B5846842EA65
:1015E000032224F47F440A432243826010BD8268B0
:1015F00022F070020A4342F0070181607047000048
:1016000030B5036A026A22F001020262426884690C
:1016100024F073050C682C4323F002058B682B43E0
:101620000A4DA8420BD123F00805CB6822F4407282
:101630002B434D6923F0040315438A692A43426012
:10164000846149684163036230BD0000002C0140A1
:1016500030B5026A036A23F01003036243688469A9
:101660000D6824F4E64444EA05248D6822F0200243
:1016700042EA05120B4DA8420ED1CD6822F080023D
:1016800042EA05124D6923F4406343EA85038D69FC
:1016900022F0400243EA8503436084614968816324
:1016A000026230BD002C014030B5036A026A22F4A8
:1016B000807202624268C46923F4007324F07305E7
:1016C0000C682C438D6843EA05230C4DA8420ED1CB
:1016D000CD6823F4006343EA05234D6922F44052A8
:1016E00042EA05128D6923F4806342EA05124260E2
:1016F000C4614968C163036230BD0000002C014031
:1017000030B5046A026A22F4805202624268C369F8
:101710000D6823F4E64343EA05238D6824F400545E
:1017200044EA0534064DA84204D14D6922F48042B2
:1017300042EA85124260C36149680164046230BDB7
:10174000002C014010B5036A046A24F0010404620D
:10175000846924F0F00444EA021423F00A020A43E4
:101760008461026210BD10B5036A046A24F010049B
:101770000462846923F0A00324F4704444EA023232
:1017800043EA01118261016210BD00002DE9F041C0
:1017900019480068406A194D06B2288C301A04B204
:1017A000B4F5004F02DA14F5004F00DC24B2144FF8
:1017B000204600F0E9F88046394600F0FDF8686000
:1017C00060000FD040464FF0FF3100F068FAA96882
:1017D00000F056F80B49A860884202DC0A498842AA
:1017E00000D9A96028682E6220442860A968296170
:1017F000A861BDE8F08100007C000020000000200E
:101800000000164400007A4400007AC4FEE709078D
:10181000090E002804DB00F1E02080F80014704776
:1018200000F00F0000F1E02080F8141D7047000068
:10183000FEF746FEFFF751FEFFF7F6FCFFF746FD09
:10184000FFF7B2FDFFF77AFD00210B48FFF78EFC92
:1018500009483C214830FFF7DDFA07489030FFF790
:10186000C3F906480021C16041618161C1610A205C
:10187000FEF710FDFBE70000340000200000002010
:1018800090EA010F48BF81F0004100F16881421ADF
:101890003CBF801A89184FEAD0524FF07F4C1CEAA7
:1018A000410FA2EBD15318BF9CEA026F00F03B80BE
:1018B0004FF0004C4CEA00204CEA012121FA03FCD5
:1018C00010EB0C0C1ED202F1FF325FEA1C2040EB41
:1018D000C25038BF70471CF07F0F4FEA400C18BF52
:1018E000BCF17F4F38BF7047C3F12003994008BF58
:1018F00020F00100BCF17F4F38BF7047A0F1C0401D
:1019000000F021B94FEA3C00000A40EBC25028BF6A
:101910001CF0FF0F4FEA400CE6D018BFBCF17F4F20
:1019200038BF7047EAE79CEA026F05D010EA5C0F07
:1019300008BF00F00040704710B500F0BEF800BFCF
:1019400064FBBE3E014800F078B900BF0000C07FD4
:1019500041000B0ED3F19E0208D950F400034FEA68
:10196000032323FA02F048BF4042704710B500F04D
:10197000A4F800BF49922480002070476FF0004215
:1019800082EA20007047000010F0004148BF40424A
:10199000B0FA80F310FA03F2C3F19D030BD051EAC1
:1019A000C35101EB1220530638BF704700F101000C
:1019B00008BF20F0010070474FF47F0C1CEAD012E2
:1019C0001EBF1CEAD11392EA0C0F93EA0C0F00F031
:1019D000478090EA010F48BF42F480724FF0004CFC
:1019E0004CEA00204CEA012102EB0302A0FB0113A8
:1019F000A2F50002002918BF43F001035B0028BFD5
:101A00004FEA330342EB22425FEA132C4CEBC25005
:101A10002EBFBCEB436FB2F57C0F70474FEA036CEF
:101A2000BCF1004F08BF20F00100B2F57C0F38BFB9
:101A300070470BD582F0FF0212F5803FC8BF704798
:101A400000F1C040D8BF00F00040704700F5000C26
:101A50005FEA4C0C48BF7047B0F1C04000F073B86B
:101A600090EA010F0CEAD11348BF42F4807262453C
:101A700038BF634504D280EA010000F0004070479F
:101A800010B500F01AF800BF8900013E00F007B859
:101A900000F009B85FEA410C5FEA1C6C08D080EAEC
:101AA000010000F050B85FEA400C5FEA1C6CF6D110
:101AB0004FF00040A0F5800070470EF1020E2EF0AE
:101AC000030E5EF8044B244204D44FEA4102B2F103
:101AD0007F4F11D84FEA4003B3F17F4F0CD80ED19E
:101AE0004FEAD07CB2F17F4F0CEB4C0C0CF1020CA6
:101AF00008BF4CEBD17C04E04FF0080C01E04FEA4A
:101B0000D17C0CEB4C0324FA03F404F00704B4F189
:101B1000040C06D20EEB840CBDE810404CF0010C16
:101B20006047DFE80CF0070802024FF00040A0F524
:101B3000800010BD0846420018BFD2F1807288BFF5
:101B400000F0004010BDFF2141EAD050C0057047B1
:101B500090EA010F48BF81F000413FF598AE421A6C
:101B600004D882F00042A0EB020011444FEAD052A8
:101B70004FF07F4C1CEA410FA2EBD15318BF9CEAF7
:101B8000026F4AD04FF0004C4CEA00204CEA012191
:101B900021FA03FCB0EB0C0C0FD412F0FE0F36D080
:101BA0005FEA4C001DD5001240EBC25038BF7047B1
:101BB0001CF03F0F18BF70470BE0A2F101025FEA73
:101BC0001C2040EBC25038BF70471CF07F0F18BF7D
:101BD0007047C3F12003994014BF401E20F001005C
:101BE000704780084FEA122308BF7047B0FA80FCA4
:101BF000A2EB0C02CCF1280C60FA0CF093EA122F45
:101C000004BF00EBC25070474FEAC3707047130A1D
:101C10005FEADC1008BF7047F6E79CEA026F04D069
:101C200010EA5C0F08BF0020704710B5FFF745FFB2
:101C300040DFF63E81F0004070470CF00F03092BA7
:101C400008BF082000F051800A2B0BD0082B18BFCA
:101C5000704708BF1CF0400F0AD04FF000004FF053
:101C6000000170471CF0400F18BF4FF00040704754
:101C70001CF0100F08D020F0704300F07F4242EAC1
:101C8000D3014FEA4370704700F0604021F07F427B
:101C900042EA000201F07F4040EA727070474FF064
:101CA000FF0212EAD0521CBF92F0FF038B42C2BF68
:101CB000D14200EBC1507047002A0AD0002B0BD054
:101CC000002900F00040A4BF40F0FE4040F40000B6
:101CD000704700F00040704743024FF00B0C18BFF4
:101CE0004CF0806C7FF42EAE70471CF4801F11D036
:101CF0001CF4E02F03D06FEACC31490070474FF05D
:101D00004050EFF3008222F0704242EA000282F378
:101D1000008870474FF0000070470102020304057D
:101D2000060708090A0B0C0D0E0F1010000000002A
:101D30000000000001020304060708095C1D0008FA
:101D4000000000203400000028010008901D000859
:101D5000340000203C07000044010008000000009F
:101D60000000000000000000000000000000000073
:101D70000000000000000000000000000000000063
:101D800001000000100000000000000000127A00B6
:04000005080000ED02
:00000001FF
